:100000000C9434000C9451000C9451000C94510049
:100010000C9451000C9451000C9451000C9451001C
:100020000C9451000C9451000C9451000C9451000C
:100030000C9451000C9451000C9451000C945100FC
:100040000C9451000C9451000C9451000C945100EC
:100050000C9451000C9451000C9451000C945100DC
:100060000C9451000C94510011241FBECFEFD4E02A
:10007000DEBFCDBF11E0A0E0B1E0E6EAF9E002C0EA
:1000800005900D92A031B107D9F711E0A0E1B1E0E0
:1000900001C01D92A633B107E1F70E94F8020C944B
:1000A000D1040C94000084E06CE071E00E94A9038C
:1000B0008CE060E071E00E9470030E94F5030895F7
:1000C000CF93DF93882309F0D7C06091110170911D
:1000D000120180911301909114010E9495048823CC
:1000E00009F4CFC084E06CE071E00E9470038CE002
:1000F00060E071E00E94A90380911001823009F450
:100100006FC0833028F4882361F0813039F42DC02A
:10011000833009F454C0863008F462C0C4E6D0E0ED
:1001200095C08DB79EB707970FB6F8949EBF0FBEC8
:100130008DBFEDB7FEB7319683E0ADB7BEB7119670
:100140008C9382ED90E09283818383EC90E09483A2
:10015000838380EB90E0968385830E940804C4E645
:10016000D0E08DB79EB707966CC0ADB7BEB71B97F2
:100170000FB6F894BEBF0FBEADBFEDB7FEB7319658
:1001800085E011968C9382ED90E09283818383ECDD
:1001900090E09483838386ED90E09683858380EB63
:1001A00090E09087878381EB90E0928781870E941F
:1001B0000804C4E6D0E08DB79EB70B9642C0ADB739
:1001C000BEB71F970FB6F894BEBF0FBEADBFEDB759
:1001D000FEB7319687E011968C9384ED90E010C0C5
:1001E000ADB7BEB71F970FB6F894BEBF0FBEADBF79
:1001F000EDB7FEB7319687E011968C9382ED90E0D3
:100200009283818383EC90E09483838385ED90E0F7
:100210009683858386ED90E09087878380EB90E0DE
:100220009287818781EB90E09487838780EC90E0D0
:10023000968785870E940804CCE2D1E08DB79EB7EF
:100240000F960FB6F8949EBF0FBE8DBF0E94F503A8
:10025000809110018F5F80931001CE010E94810474
:100260006093110170931201809313019093140114
:1002700080911001863029F481E080932B01109247
:100280001001DF91CF910895882331F481E08093AC
:100290002B011092150108956091160170911701BC
:1002A00080911801909119010E949504882399F179
:1002B0008091150180FF0BC084E06CE071E00E942A
:1002C00070038CE060E071E00E9470030AC084E07B
:1002D0006CE071E00E94A9038CE060E071E00E9494
:1002E000A9030E94F50384E690E00E9481046093D4
:1002F0001601709317018093180190931901809152
:1003000015018F5F80931501863029F483E0809377
:100310002B01109215010895AF92BF92CF92DF92F8
:10032000EF92FF920F931F93CF93DF9360911B0186
:1003300070911C0180911D0190911E010E949504F5
:10034000882309F45AC084E06CE071E00E947003D5
:1003500080911A0190E001966CE070E00E94BE046A
:1003600080931A01282F30E0C90101966CE070E0FB
:100370000E94BE04482FC90106966CE070E00E94FE
:10038000BE04E82EFF24C70101966CE070E00E94D5
:10039000BE0400E011E0C0E0D0E0A42EBB24C82ED3
:1003A000DD2480911A0190E0C817D90749F0CE15D5
:1003B000DF0531F0CA15DB0519F0CC15DD0529F490
:1003C000F80180810E945E0304C0F80180810E94D0
:1003D000960321960F5F1F4FCC30D10511F70E9475
:1003E000F50382E390E00E94810460931B01709307
:1003F0001C0180931D0190931E01DF91CF911F91ED
:100400000F91FF90EF90DF90CF90BF90AF90089545
:10041000EF92FF920F931F93CF93DF9384E06CE0F2
:1004200071E00E94700360911F0170912001809122
:100430002101909122010E949504882309F4A4C00F
:1004400040912301509124018FE04F3F580769F5F7
:10045000109224011092230181E080932B01C0E0CF
:10046000D0E008EA11E6C0FF0BC084E06CE071E068
:100470000E94A9038CE060E071E00E9470030AC052
:1004800084E06CE071E00E9470038CE060E071E059
:100490000E94A9030E94F503C8010197F1F7A895EE
:1004A0002196C630D105F9F66FC010E02BE030E0A0
:1004B000A1E0B0E0FD01022E02C0EE0FFF1F0A9482
:1004C000E2F7CF0184239523892BD1F02B3031051E
:1004D000B9F02F5F3F4FBD01022E02C0660F771F9C
:1004E0000A94E2F721503040CB0184239523892BD5
:1004F00039F44E275F27462B572B11E02FEF3FEFA4
:100500002150304037FFD6CF409323015093240130
:10051000112331F44F5F5F4F509324014093230127
:1005200000E011E0C0E0D0E081E0E82EF12CC7014E
:100530000C2E02C0880F991F0A94E2F72091230124
:100540003091240182239323892B29F0F8018081A3
:100550000E945E0304C0F80180810E9496032196E8
:100560000F5F1F4FCC30D10511F7A8950E94F503FE
:1005700089E190E00E94810460931F017093200143
:100580008093210190932201DF91CF911F910F91D0
:10059000FF90EF9008951F9386EB0E94D003182FD1
:1005A00080912601811771F084E690E00E94810419
:1005B00060932701709328018093290190932A0169
:1005C00010932601609127017091280180912901E3
:1005D00090912A010E949504882331F08091260190
:1005E00091E0892780932501809125011F9108952D
:1005F0000F931F9388E10FB6F894809360001092D8
:1006000060000FBE0E944B030E94350410922B0124
:100610002DE088E190E00FB6F894A89580936000F3
:100620000FBE2093600004E012E0A8950E94CB0268
:10063000982F80912B01882369F080912C019923B8
:1006400029F0882339F410932B0104C0882311F07A
:1006500000932B0190932C0180912B01823069F043
:10066000833018F4882331F013C0833051F0843084
:1006700079F40AC00E940802D8CF892F0E94440151
:10068000D4CF0E945300D1CF892F0E946000CDCFDC
:100690000E948C01CACF84B1876884B987B18F6307
:1006A00087B98AB18C6F8AB985B180932D0188B1E1
:1006B00080932E018BB180932F010895E82FE2954E
:1006C000EF70F0E0EE5DFE4F8F7021E030E002C091
:1006D000220F331F8A95E2F78081822B8083089551
:1006E000CF93DF9340E050E0A82FB0E0C1E0D0E02E
:1006F00017C0FB01E40FF51F8081E82FE295EF7032
:10070000F0E0EE5DFE4F8F709E0102C0220F331F9E
:100710008A95E2F7C9012081282B20834F5F5F4F24
:100720004A175B0734F3DF91CF910895E82FE295E4
:10073000EF70F0E0EE5DFE4F8F7021E030E002C020
:10074000220F331F8A95E2F720958081282320838A
:100750000895CF93DF9340E050E0A82FB0E0C1E0D0
:10076000D0E018C0FB01E40FF51F8081E82FE2956F
:10077000EF70F0E0EE5DFE4F8F709E0102C0220F21
:10078000331F8A95E2F7C9018095208182238083F7
:100790004F5F5F4F4A175B072CF3DF91CF910895AE
:1007A000282F82958F7090E00B978130910549F04A
:1007B0008230910581F0892B11F080E0089583B19A
:1007C00001C086B190E02F7002C0959587952A955B
:1007D000E2F78170089589B190E02F7002C095957D
:1007E00087952A95E2F78170089585B18877909171
:1007F0002D01892B85B988B1807C90912E01892BA0
:1008000088B98BB1837090912F01892B8BB9089592
:100810000F931F93DF93CF93CDB7DEB7FE013796CB
:100820004191DF0160E070E050E001E010E015C0B0
:100830008C91E82FE295EF70F0E0EE5DFE4F8F7047
:10084000980102C0220F331F8A95E2F7C901208167
:10085000282B20836F5F7F4F12966417750744F330
:10086000CF91DF911F910F910895E1E8F0E0808131
:100870008560808310923101109230011092320114
:1008800010923301109234011092350108958FB700
:10089000F89460918400709185008FBF8091300141
:1008A0009091310120913201309133014091340116
:1008B000509135016817790728F480959095860F37
:1008C000971F04C0FB01E81BF90BCF01A0E0B0E0CB
:1008D000280F391F4A1F5B1F2093320130933301C9
:1008E000409334015093350170933101609330018E
:1008F0006091320170913301809134019091350102
:100900000895EF92FF920F931F937C010E9447047A
:1009100000E010E0E60EF71E081F191FB701C8011E
:100920001F910F91FF90EF900895EF92FF920F9318
:100930001F937B018C010E94470420E0E616F70616
:100940000807190708F421E0822F1F910F91FF90EB
:10095000EF900895AA1BBB1B51E107C0AA1FBB1F44
:10096000A617B70710F0A61BB70B881F991F5A953B
:10097000A9F780959095BC01CD01089597FB092EAC
:1009800007260AD077FD04D0E5DF06D000201AF450
:10099000709561957F4F0895F6F7909581959F4FDB
:0609A0000895F894FFCF5A
:1009A600D2D4B7D5D6B0B1C0C1C2C3C5D3D7B2C4ED
:00000001FF
